:020000040800F2
:10000000005000205F0A0008590A0008590A000839
:10001000590A0008590A0008590A0008000000009F
:10002000590A0008590A000800000000590A00088F
:100030005D0C0008590A0008590A0008590A00080E
:10004000590A0008590A0008590A0008590A000804
:10005000590A0008590A0008590A0008590A0008F4
:10006000590A0008590A0008590A0008590A0008E4
:10007000590A0008590A0008590A0008590A0008D4
:10008000590A0008590A0008590A0008590A0008C4
:10009000590A0008590A0008590A0008590A0008B4
:1000A000590A0008590A0008590A0008590A0008A4
:1000B000590A0008590A0008590A0008590A000894
:1000C000590A0008590A0008590A00081D050008C5
:1000D000590A0008590A0008590A0008590A000874
:1000E000590A0008590A0008590A0008590A000864
:1000F000590A0008590A0008590A0008590A000854
:10010000590A0008590A0008590A0008590A000843
:10011000590A0008590A0008590A0008590A000833
:10012000590A0008590A0008590A000880B582B027
:1001300000AF094B3B60094B7B6008E03B46022265
:100140001946786800F028FC7B6804337B607B6884
:10015000034A9342F2D9FEE70500002000F00008B0
:10016000BFFF000880B400AF044B81221A60044B2B
:1001700000221A6000BFBD4680BC704700100240DC
:100180000410024080B483B000AF03460A46FB71FE
:100190001346BB71BB791F2B2AD8FB79022B1CD0CD
:1001A000022B25DC002B02D0012B0BD020E0134BBF
:1001B0001B68BA79012101FA02F211460F4A0B437A
:1001C000136015E00E4B1B68BA79012101FA02F2A7
:1001D00011460B4A0B4313600AE00A4B1B68BA79BD
:1001E000012101FA02F21146064A0B43136000BFD7
:1001F00000BF0C37BD4680BC704700BF14100240E2
:100200001C1002401810024080B483B000AF0346B7
:100210000A46FB711346BB71BB791F2B2DD8FB79A6
:10022000022B1ED0022B28DC002B02D0012B0CD07D
:1002300023E0144B1B68BA79012101FA02F2D24380
:100240001146104A0B40136017E00F4B1B68BA7938
:10025000012101FA02F2D24311460B4A0B4013600E
:100260000BE00A4B1B68BA79012101FA02F2D24372
:100270001146064A0B40136000BF00BF0C37BD4655
:1002800080BC7047141002401C100240181002403D
:1002900080B400AF324B40F241329A60304BDB68A1
:1002A0002F4A43F00803D3602D4BDB682C4A43F000
:1002B0000403D3602A4BDB68294A23F48063D360AC
:1002C000274BDB68264A23F40073D360244BDB689A
:1002D000234A23F04003D360214BDB68204A43F0DC
:1002E0002003D3601E4B1B691D4A23F48053136106
:1002F0001B4B1B691A4A23F400531361184B1B69EB
:10030000174A23F400631361154B1B69144A23F445
:1003100080631361124B1B69114A23F4007313614C
:100320000F4B5B690E4A23F0400353610C4B5B6932
:100330000B4A23F080035361094B5B69084A23F0A1
:1003400001035361064BDB68054A43F40053D36055
:10035000034B00221A6000BFBD4680BC704700BF3F
:100360000038014080B485B000AF78600023FB7393
:100370000FE0FB7B7A6813441A780C4B5A6000BF7D
:100380000A4B1B6803F04003002BF9D0FB7B0133C1
:10039000FB73FB7B7A6813441B78002BE9D100BF09
:1003A00000BF1437BD4680BC704700BF0038014015
:1003B00080B483B000AF0346FB710B4AFB795360F6
:1003C00000BF094B1B689B0903F00103002BF8D009
:1003D000054B1B68044A23F04003136000BF0C3731
:1003E000BD4680BC704700BF0038014080B483B078
:1003F00000AF0023FB710B4B1B680A4A23F020035C
:10040000136000BF074B1B685B0903F00103002B5F
:10041000F8D0044B5B68FB71FB7918460C37BD467E
:1004200080BC70470038014090B585B000AF78605F
:100430000023FB73FB7B7A68D418FFF7D7FF0346D2
:10044000237009E0FB7B0133FB73FB7B7A68D418D4
:10045000FFF7CCFF03462370FB7B7A6813441B78BD
:100460000A2BEFD1FB7B7A68134400221A7000BF7D
:100470001437BD4690BD90B585B000AF0023FB7327
:100480000023FB730CE0FC7BFFF7B0FF03461A462A
:1004900007F11003234403F80C2CFB7B0133FB739F
:1004A000FB7B032BEFD9FB791A06BB791B041A439C
:1004B0007B791B0213433A791343BB60BB68184630
:1004C0001437BD4690BD80B485B000AF786001237D
:1004D000FB730A4B1B685B0903F00103012B05D179
:1004E000064B5B68DAB27B681A7001E00023FB738D
:1004F000FB7B18461437BD4680BC7047003801406E
:1005000080B483B000AF7860034A7B68136000BF9B
:100510000C37BD4680BC70470800002080B500AF96
:10052000074B1B6803F02003002B06D0054B1B680C
:10053000034A5268D2B21046984700BF80BD00BF40
:10054000003801400800002080B400AF094B0022B1
:100550001A60084B00225A60064B0022DA60054BF5
:1005600000221A61044B00221A6000BFBD4680BC05
:10057000704700BF003801400800002080B483B0FD
:1005800000AF0346FB710B46BB7113467B71FB79D1
:10059000022B7AD0022B00F3B180002B02D0012B6A
:1005A0003AD0ABE0BB79072B17D85A4B1B68BA7906
:1005B00092000F2101FA02F2D2431146554A0B4034
:1005C0001360544B1B687979BA79920001FA02F2F0
:1005D0001146504A0B43136092E0BB790F2B00F297
:1005E0008F80BB79083BBB714B4B1B68BA7992007B
:1005F0000F2101FA02F2D2431146474A0B40136021
:10060000454B1B687979BA79920001FA02F21146DA
:10061000414A0B43136073E0BB79072B17D83F4B5C
:100620001B68BA7992000F2101FA02F2D2431146F7
:100630003A4A0B401360394B1B687979BA799200BA
:1006400001FA02F21146354A0B4313605AE0BB79B6
:100650000F2B57D8BB79083BBB71314B1B68BA795C
:1006600092000F2101FA02F2D24311462C4A0B40AC
:1006700013602B4B1B687979BA79920001FA02F268
:100680001146274A0B4313603CE0BB79072B17D870
:10069000244B1B68BA7992000F2101FA02F2D2436F
:1006A0001146204A0B4013601E4B1B687979BA79BA
:1006B000920001FA02F211461A4A0B43136023E03A
:1006C000BB790F2B20D8BB79083BBB71164B1B683D
:1006D000BA7992000F2101FA02F2D2431146124A6E
:1006E0000B401360104B1B687979BA79920001FABC
:1006F00002F211460C4A0B43136005E000BF04E010
:1007000000BF02E000BF00E000BF00BF0C37BD46E5
:1007100080BC70470008014004080140000C014003
:10072000040C0140001001400410014080B483B06B
:1007300000AF0346FB710B46BB7113467B71FB791F
:10074000022B2AD0022B3ADC002B02D0012B12D034
:1007500035E07B79012B05D1BB7901229A401E4BF4
:100760001A602EE07B79002B2BD1BB7901229A40B5
:100770001A4B1A6025E07B79012B05D1BB79012248
:100780009A40174B1A601EE07B79002B1BD1BB7976
:1007900001229A40134B1A6015E07B79012B05D199
:1007A000BB7901229A40104B1A600EE07B79002B36
:1007B0000BD1BB7901229A400C4B1A6005E000BFB7
:1007C00004E000BF02E000BF00E000BF00BF0C3744
:1007D000BD4680BC704700BF1008014014080140AE
:1007E000100C0140140C0140101001401410014085
:1007F00080B485B000AF03460A46FB711346BB7157
:100800000023FB73FB79022B1AD0022B22DC002B76
:1008100002D0012B0AD01DE0124B1A68BB7922FAD4
:1008200003F3DBB203F00103FB7314E00E4B1A6811
:10083000BB7922FA03F3DBB203F00103FB730AE096
:100840000A4B1A68BB7922FA03F3DBB203F0010307
:10085000FB7300E000BFFB7B18461437BD4680BC2D
:10086000704700BF08080140080C01400810014013
:1008700080B582B000AF0823FB7106E0FB79184613
:1008800000F035F8FB790133FB71FB79232BF5D9A7
:1008900000BF00BF0837BD4680BD80B582B000AF45
:1008A0002423FB7106E0FB79184600F020F8FB7961
:1008B0000133FB71FB793E2BF5D900BF00BF083730
:1008C000BD4680BD80B582B000AF0823FB7106E055
:1008D000FB79184600F00BF8FB790133FB71FB79CB
:1008E0003F2BF5D900BF00BF0837BD4680BD80B49F
:1008F00083B000AF0346FB71244B1B69234A43F0CE
:100900008003136100BF214BDB6803F00103012B5F
:10091000F9D01E4B1B69DB0903F00103012B05D144
:100920001A4B1B4A5A60194B1A4A5A60174B1B69DB
:10093000164A43F002031361FB799B02134A03F149
:1009400000635361114B1B69104A43F0400313616C
:1009500000BF0E4BDB6803F00103012BF9D00B4BFA
:10096000DB680A4A43F02003D360084B1B69074A3F
:1009700023F002031361054B1B69044A43F0800313
:10098000136100BF0C37BD4680BC70470020024099
:1009900023016745AB89EFCD80B487B000AFF86025
:1009A000B9601346FB7100BF284BDB6803F00103FD
:1009B000012BF9D0254B1B69DB0903F00103012B47
:1009C00005D1224B224A5A60204B224A5A6000230A
:1009D000FB752BE01D4B1B691C4A43F0010313619F
:1009E000FB7D5B00BA6813441B88BB82FB7D5B0008
:1009F000BA681A44FB6812881A80FB680233FB60ED
:100A000000BF124BDB6803F00103012BF9D00F4B41
:100A1000DB680E4A43F02003D3600C4B1B690B4A82
:100A200023F001031361FB7D0133FB75FA7DFB7934
:100A30009A42CFD3054B1B69044A43F080031361EC
:100A400000BF1C37BD4680BC704700BF002002407D
:100A500023016745AB89EFCD80B400AFFEE780B5D9
:100A600086B000AF1A4A1B4BD31A7B60194B7B61CF
:100A7000194B3B610023FB600AE03A69531C3B6160
:100A80007B69591C796112781A70FB680133FB602D
:100A9000FA687B689A42F0D3104A114BD31A7B60F4
:100AA0000F4B7B610023BB6007E07B695A1C7A61B6
:100AB00000221A70BB680133BB60BA687B689A4237
:100AC000F3D3FFF733FB00BF1837BD4680BD00BF2F
:100AD0000000002000000020E40A00080C000020B4
:100AE0000000002080B400AF044B1B68034A23F0D1
:100AF0000403136000BFBD4680BC704710E000E0F7
:100B000080B483B000AF7860104A7B6853600F4BAD
:100B10001B680E4A43F00103136000BF0B4B1B68B8
:100B20001B0C03F00103002BF8D0084B1B68074A8D
:100B300023F001031360054B00225A60034B00228F
:100B40009A6000BF0C37BD4680BC704710E000E0E3
:100B500080B483B000AF786039600D4A7B68536021
:100B60000B4B1B680A4A43F001031360094A3B68B8
:100B70001360094B00221A70054B1B68044A43F0AE
:100B80000203136000BF0C37BD4680BC704700BF36
:100B900010E000E0000000200400002080B483B0DA
:100BA00000AF786039600D4A7B6853600B4B1B685F
:100BB0000A4A43F001031360094A3B681360094B7A
:100BC00001221A70054B1B68044A43F002031360AC
:100BD00000BF0C37BD4680BC704700BF10E000E08E
:100BE000000000200400002080B400AF0A4B1B6806
:100BF000094A23F002031360074B1B68064A23F0DF
:100C000001031360044B00225A60034B00229A60D8
:100C100000BFBD4680BC704710E000E080B483B0E8
:100C200000AF064B5A68054B9B68D31A7B607B6804
:100C300018460C37BD4680BC704700BF10E000E08E
:100C400080B483B000AF044B9B687B607B68184620
:100C50000C37BD4680BC704710E000E080B500AFA7
:100C60000D4B1B78002B11D10C4B1B680B4A23F04A
:100C700002031360094B1B68084A43F00103136029
:100C8000064B00225A60054B00229A60044B1B68F9
:100C9000984700BF80BD00BF0400002010E000E0C6
:040CA0000000002030
:0400000508000A5F86
:00000001FF
