:020000040800F2
:1010000000500020A7180008A1180008A118000827
:10101000A1180008A1180008A1180008000000008D
:10102000A1180008A118000800000000A11800087D
:10103000A1180008A1180008A1180008A1180008AC
:10104000A1180008A1180008A1180008A11800089C
:10105000A1180008A1180008A1180008A11800088C
:10106000A1180008A1180008A1180008A11800087C
:10107000A1180008A1180008A1180008A11800086C
:10108000A1180008A1180008A1180008A11800085C
:10109000A1180008A1180008A1180008A11800084C
:1010A000A1180008A1180008A1180008A11800083C
:1010B000A1180008A1180008A1180008A11800082C
:1010C000A1180008A1180008A1180008A11800081C
:1010D000A1180008A1180008A1180008A11800080C
:1010E000A1180008A1180008A1180008A1180008FC
:1010F000A1180008A1180008A1180008A1180008EC
:10110000A1180008A1180008A1180008A1180008DB
:10111000A1180008A1180008A1180008A1180008CB
:10112000A1180008A1180008A118000880B500AF98
:1011300000F010F80221022000F01CF80222082121
:10114000002000F09DF801220821002000F072F933
:10115000FEE7000080B400AF044B81221A60044B0C
:1011600000221A6000BFBD4680BC704700100240DC
:101170000410024080B483B000AF03460A46FB71FE
:101180001346BB71BB791F2B2AD8FB79022B1CD0CD
:10119000022B25DC002B02D0012B0BD020E0134BBF
:1011A0001B68BA79012101FA02F211460F4A0B437A
:1011B000136015E00E4B1B68BA79012101FA02F2A7
:1011C00011460B4A0B4313600AE00A4B1B68BA79BD
:1011D000012101FA02F21146064A0B43136000BFD7
:1011E00000BF0C37BD4680BC704700BF14100240E2
:1011F0001C1002401810024080B483B000AF0346B8
:101200000A46FB711346BB71BB791F2B2DD8FB79A6
:10121000022B1ED0022B28DC002B02D0012B0CD07D
:1012200023E0144B1B68BA79012101FA02F2D24380
:101230001146104A0B40136017E00F4B1B68BA7938
:10124000012101FA02F2D24311460B4A0B4013600E
:101250000BE00A4B1B68BA79012101FA02F2D24372
:101260001146064A0B40136000BF00BF0C37BD4655
:1012700080BC7047141002401C100240181002403D
:1012800080B483B000AF0346FB710B46BB711346BD
:101290007B71FB79022B79D0022B00F39880002B15
:1012A00002D0012B39D092E0BB79072B17D84E4BD7
:1012B0001B68BA7992000F2101FA02F2D24311465B
:1012C000494A0B401360484B1B687979BA79920000
:1012D00001FA02F21146444A0B43136079E0BB79EC
:1012E0000F2B76D8BB79083BBB71404B1B68BA7992
:1012F00092000F2101FA02F2D24311463B4A0B4001
:1013000013603A4B1B687979BA79920001FA02F2BC
:101310001146364A0B4313605BE0BB79072B17D8A5
:10132000334B1B68BA7992000F2101FA02F2D243C3
:1013300011462F4A0B4013602D4B1B687979BA79FF
:10134000920001FA02F21146294A0B43136042E06F
:10135000BB790F2B3FD8BB79083BBB71254B1B6872
:10136000BA7992000F2101FA02F2D2431146214AC2
:101370000B4013601F4B1B687979BA79920001FA10
:1013800002F211461B4A0B43136024E0BB790F2B7A
:1013900023D8BB790C2B20D9BB79083BBB71164BEA
:1013A0001B68BA7992000F2101FA02F2D24311466A
:1013B000114A0B401360104B1B687979BA7992007F
:1013C00001FA02F211460C4A0B43136005E000BF1C
:1013D00004E000BF02E000BF00E000BF00BF0C3728
:1013E000BD4680BC704700BF0008014004080140B2
:1013F000000C0140040C01400410014080B584B091
:1014000000AF03460A46FB711346BB710023FB7312
:1014100008E0BA79F97BFB791846FFF731FFFB7BCF
:101420000133FB73FB7B0F2BF3D900BF00BF1037D9
:10143000BD4680BD80B483B000AF0346FB710B4650
:10144000BB7113467B71FB79022B40D0022B5BDC16
:10145000002B02D0012B1DD056E07B79012B0AD145
:101460002F4B1B68BA79012101FA02F211462C4A6E
:101470000B4313604AE07B79002B47D1284B1B6854
:10148000BA79012101FA02F2D2431146244A0B40F3
:1014900013603BE07B79012B0AD1224B1B68BA79A0
:1014A000012101FA02F211461E4A0B4313602FE09C
:1014B0007B79002B2CD11B4B1B68BA79012101FAD7
:1014C00002F2D2431146174A0B40136020E07B79A9
:1014D000012B0AD1144B1B68BA79012101FA02F2DF
:1014E0001146114A0B43136014E07B79002B11D194
:1014F0000D4B1B68BA79012101FA02F2D243114661
:10150000094A0B40136005E000BF04E000BF02E0A1
:1015100000BF00E000BF00BF0C37BD4680BC704775
:101520000C0801400C0C01400C10014080B483B049
:1015300000AF03460A46FB711346BB80FB79022BC2
:101540000ED0022B10DC002B02D0012B04D00BE0BC
:10155000084ABB88136008E0074ABB88136004E0B0
:10156000064ABB88136000E000BF00BF0C37BD46D1
:1015700080BC70470C0801400C0C01400C1001406D
:1015800080B485B000AF03460A46FB711346BB71B9
:101590000023FB73FB79022B1AD0022B22DC002BD9
:1015A00002D0012B0AD01DE0124B1A68BB7922FA37
:1015B00003F3DBB203F00103FB7314E00E4B1A6874
:1015C000BB7922FA03F3DBB203F00103FB730AE0F9
:1015D0000A4B1A68BB7922FA03F3DBB203F001036A
:1015E000FB7300E000BFFB7B18461437BD4680BC90
:1015F000704700BF08080140080C01400810014076
:1016000080B485B000AF0346FB710023FB81FB79FA
:10161000022B0ED0022B10DC002B02D0012B04D0A9
:101620000BE0094B1B68FB8108E0084B1B68FB8142
:1016300004E0074B1B68FB8100E000BFFB891846F4
:101640001437BD4680BC704708080140080C0140B3
:101650000810014080B483B000AF03460A46FB7116
:101660001346BB71FB79022B1CD0022B25DC002B0F
:1016700002D0012B0BD020E0134B1B68BA7901215B
:1016800001FA02F21146104A4B40136016E00F4B6C
:101690001B68BA79012101FA02F211460B4A4B404C
:1016A00013600BE00A4B1B68BA79012101FA02F2C0
:1016B0001146074A4B40136000E000BF00BF0C37E3
:1016C000BD4680BC704700BF0C0801400C0C0140B7
:1016D0000C10014080B584B000AF0346FB710023BD
:1016E000FB7308E0FA7BFB7911461846FFF7B2FF5F
:1016F000FB7B0133FB73FB7B0F2BF3D900BF00BFD8
:101700001037BD4680BD80B485B000AF03460A46A1
:10171000FB711346BB710023FB60FB79022B65D084
:10172000022B00F39880002B02D0012B2FD092E0E7
:101730004D4B1B684C4A23F4803313604A4B1B68A3
:10174000BA79012101FA02F21146474A0B431360AC
:10175000454B1B68444A43F480331360424B1B687B
:10176000414A23F4803313603F4B1B683E4A43F4E5
:10177000803313603C4B1B681B0C03F00103FB60C0
:10178000394B1B681B0C03F00103FB6066E0364B12
:101790001B68354A23F480331360334B1B68BA79D6
:1017A000012101FA02F211462F4A0B4313602E4B1E
:1017B0001B682D4A43F4803313602B4B1B682A4A65
:1017C00023F480331360284B1B68274A43F480338B
:1017D0001360254B1B681B0C03F00103FB60224BBD
:1017E0001B681B0C03F00103FB6037E0BB790F2B78
:1017F00033D8BB790C2B30D91B4B1B681A4A23F406
:1018000080331360184B1B68BA79012101FA02F288
:101810001146154A0B431360134B1B68124A43F4DD
:1018200080331360104B1B680F4A23F4803313601E
:101830000D4B1B680C4A43F4803313600A4B1B6842
:101840001B0C03F00103FB60074B1B681B0C03F030
:101850000103FB6001E000BF00E000BF00BF1437E0
:10186000BD4680BC704700BF1808014080B584B0F9
:1018700000AF0346FB710023FB7308E0FA7BFB79A2
:1018800011461846FFF73FFFFB7B0133FB73FB7BE1
:101890000F2BF3D900BF00BF1037BD4680BD00BF7E
:1018A00080B400AFFEE780B586B000AF1A4A1B4B8C
:1018B000D31A7B60194B7B61194B3B610023FB60A2
:1018C0000AE03A69531C3B617B69591C79611278C3
:1018D0001A70FB680133FB60FA687B689A42F0D3A8
:1018E000104A114BD31A7B600F4B7B610023BB6006
:1018F00007E07B695A1C7A6100221A70BB680133C9
:10190000BB60BA687B689A42F3D3FFF70FFC00BF55
:101910001837BD4680BD00BF000000200000002039
:10192000301900080000002000000020090000001D
:04000005080018A730
:00000001FF
